:020000000C945E
:1000020031000C9400000C9400000C9400000C943D
:1000120000000C9400000C9400000C9400000C945E
:1000220000000C9400000C9400000C9400000C944E
:1000320000000C9400000C9400000C9400000C943E
:1000420000000C9400000C9400000C9400000C942E
:10005200000000000000000106000600540000003D
:10006200F894EE27ECBBF1E0FBBFEBBFE5BF8DE000
:10007200A2E0BB27ED938A95E9F780E094E0A0E641
:10008200ED930197E9F7EAE5F0E085919591009704
:1000920061F0A591B59105901590BF01F001059011
:1000A2000D920197E1F7FB01F0CFEFE5EDBFE4E040
:1000B200EEBFC0E6D1E00C946F001A930A938D0153
:1000C200EAE0F0E06AD04DD0BF01D801EAE0F0E00A
:1000D20069D0E62BF72B099119910895EFEFE1BB57
:1000E200E4BBE7BBD098D89AD79ADF985524E8E1C9
:1000F2005E1688F5A52DBB27E0DFE2BB4424ECE3C6
:100102004E1638F5A42DBB27D8DFE5BB651431F4B4
:10011200B41421F400240814090409F004C0DF9A7D
:10012200E1E0F0E04F017724ECE37E1658F4A72DCE
:10013200BB27C3DFE8BBA4E6B0E050D0C89BDF9882
:100142007394F2CFB41419F0DF988824992443945D
:10015200D6CF5394CCCFCACFFFCFF195E195F040E3
:100162000895EE0FFF1FEE0FFF1FEE0FFF1FEE0FA2
:10017200FF1F08950024112490E1AA0FBB1F001C49
:10018200111C0E1A1F0A18F40E0E1F1E01C0A160C8
:100192009A9599F7FD01D001089512D0EBDF0EF484
:1001A200DCDF0895E894B7FF04C0B195A195B04093
:1001B2006894F7FDD2DFDEDFFD010EF4CEDF089595
:1001C200E894F7FF02C0C9DF6894B7FF06C0B19593
:1001D200A195B04000F8039400FA0895109639F002
:1001E200A89580ED97E00197F1F71197C9F7089567
:00000001FF
